{
  "contractName": "Order",
  "abi": [
    {
      "inputs": [
        {
          "name": "_buyer",
          "type": "address"
        },
        {
          "name": "_seller",
          "type": "address"
        },
        {
          "name": "_name",
          "type": "string"
        },
        {
          "name": "_serialNumber",
          "type": "string"
        },
        {
          "name": "_timestamp",
          "type": "uint256"
        },
        {
          "name": "_warrantyMilliseconds1",
          "type": "uint256"
        },
        {
          "name": "_warrantyMilliseconds2",
          "type": "uint256"
        },
        {
          "name": "_status",
          "type": "uint256"
        },
        {
          "name": "_amount",
          "type": "uint256"
        }
      ],
      "payable": false,
      "stateMutability": "nonpayable",
      "type": "constructor"
    },
    {
      "constant": true,
      "inputs": [],
      "name": "getBuyer",
      "outputs": [
        {
          "name": "",
          "type": "address"
        }
      ],
      "payable": false,
      "stateMutability": "view",
      "type": "function"
    },
    {
      "constant": false,
      "inputs": [
        {
          "name": "_buyer",
          "type": "address"
        }
      ],
      "name": "setBuyer",
      "outputs": [],
      "payable": false,
      "stateMutability": "nonpayable",
      "type": "function"
    },
    {
      "constant": true,
      "inputs": [],
      "name": "getSeller",
      "outputs": [
        {
          "name": "",
          "type": "address"
        }
      ],
      "payable": false,
      "stateMutability": "view",
      "type": "function"
    },
    {
      "constant": false,
      "inputs": [
        {
          "name": "_seller",
          "type": "address"
        }
      ],
      "name": "setSeller",
      "outputs": [],
      "payable": false,
      "stateMutability": "nonpayable",
      "type": "function"
    },
    {
      "constant": true,
      "inputs": [],
      "name": "getName",
      "outputs": [
        {
          "name": "",
          "type": "string"
        }
      ],
      "payable": false,
      "stateMutability": "view",
      "type": "function"
    },
    {
      "constant": false,
      "inputs": [
        {
          "name": "_name",
          "type": "string"
        }
      ],
      "name": "setName",
      "outputs": [],
      "payable": false,
      "stateMutability": "nonpayable",
      "type": "function"
    },
    {
      "constant": true,
      "inputs": [],
      "name": "getSerialNumber",
      "outputs": [
        {
          "name": "",
          "type": "string"
        }
      ],
      "payable": false,
      "stateMutability": "view",
      "type": "function"
    },
    {
      "constant": false,
      "inputs": [
        {
          "name": "_serialNumber",
          "type": "string"
        }
      ],
      "name": "setSerialNumber",
      "outputs": [],
      "payable": false,
      "stateMutability": "nonpayable",
      "type": "function"
    },
    {
      "constant": true,
      "inputs": [],
      "name": "getTimestamp",
      "outputs": [
        {
          "name": "",
          "type": "uint256"
        }
      ],
      "payable": false,
      "stateMutability": "view",
      "type": "function"
    },
    {
      "constant": false,
      "inputs": [
        {
          "name": "_timestamp",
          "type": "uint256"
        }
      ],
      "name": "setTimestamp",
      "outputs": [],
      "payable": false,
      "stateMutability": "nonpayable",
      "type": "function"
    },
    {
      "constant": true,
      "inputs": [],
      "name": "getWarrantyMilliseconds1",
      "outputs": [
        {
          "name": "",
          "type": "uint256"
        }
      ],
      "payable": false,
      "stateMutability": "view",
      "type": "function"
    },
    {
      "constant": false,
      "inputs": [
        {
          "name": "_warrantyMilliseconds1",
          "type": "uint256"
        }
      ],
      "name": "setWarrantyMilliseconds1",
      "outputs": [],
      "payable": false,
      "stateMutability": "nonpayable",
      "type": "function"
    },
    {
      "constant": true,
      "inputs": [],
      "name": "getWarrantyMilliseconds2",
      "outputs": [
        {
          "name": "",
          "type": "uint256"
        }
      ],
      "payable": false,
      "stateMutability": "view",
      "type": "function"
    },
    {
      "constant": false,
      "inputs": [
        {
          "name": "_warrantyMilliseconds2",
          "type": "uint256"
        }
      ],
      "name": "setWarrantyMilliseconds2",
      "outputs": [],
      "payable": false,
      "stateMutability": "nonpayable",
      "type": "function"
    },
    {
      "constant": true,
      "inputs": [],
      "name": "getStatus",
      "outputs": [
        {
          "name": "",
          "type": "uint256"
        }
      ],
      "payable": false,
      "stateMutability": "view",
      "type": "function"
    },
    {
      "constant": false,
      "inputs": [
        {
          "name": "_status",
          "type": "uint256"
        }
      ],
      "name": "setStatus",
      "outputs": [],
      "payable": false,
      "stateMutability": "nonpayable",
      "type": "function"
    },
    {
      "constant": true,
      "inputs": [],
      "name": "getAmount",
      "outputs": [
        {
          "name": "",
          "type": "uint256"
        }
      ],
      "payable": false,
      "stateMutability": "view",
      "type": "function"
    },
    {
      "constant": false,
      "inputs": [
        {
          "name": "_amount",
          "type": "uint256"
        }
      ],
      "name": "setAmount",
      "outputs": [],
      "payable": false,
      "stateMutability": "nonpayable",
      "type": "function"
    }
  ],
  "bytecode": "0x6060604052341561000f57600080fd5b604051610b20380380610b2083398101604052808051906020019091908051906020019091908051820191906020018051820191906020018051906020019091908051906020019091908051906020019091908051906020019091908051906020019091905050886000806101000a81548173ffffffffffffffffffffffffffffffffffffffff021916908373ffffffffffffffffffffffffffffffffffffffff16021790555087600160006101000a81548173ffffffffffffffffffffffffffffffffffffffff021916908373ffffffffffffffffffffffffffffffffffffffff160217905550866002908051906020019061010d929190610156565b508560039080519060200190610124929190610156565b5084600481905550836005819055508260068190555081600781905550806008819055505050505050505050506101fb565b828054600181600116156101000203166002900490600052602060002090601f016020900481019282601f1061019757805160ff19168380011785556101c5565b828001600101855582156101c5579182015b828111156101c45782518255916020019190600101906101a9565b5b5090506101d291906101d6565b5090565b6101f891905b808211156101f45760008160009055506001016101dc565b5090565b90565b6109168061020a6000396000f3006060604052600436106100fc576000357c0100000000000000000000000000000000000000000000000000000000900463ffffffff168063036c36701461010157806317d7de7c14610124578063188ec356146101b2578063271f88b4146101db5780632d79838a146101fe57806331c5a9d11461028c5780634e69d560146102e9578063529bc17314610312578063603daf9a1461033557806360f693401461038a57806369ba1a75146103b3578063a0a2b573146103d6578063a3f09ad6146103f9578063c47f002714610432578063c610f9dc1461048f578063d321fe29146104b8578063dbd0e1b6146104e1578063e99d286614610536575b600080fd5b341561010c57600080fd5b610122600480803590602001909190505061056f565b005b341561012f57600080fd5b610137610579565b6040518080602001828103825283818151815260200191508051906020019080838360005b8381101561017757808201518184015260208101905061015c565b50505050905090810190601f1680156101a45780820380516001836020036101000a031916815260200191505b509250505060405180910390f35b34156101bd57600080fd5b6101c5610621565b6040518082815260200191505060405180910390f35b34156101e657600080fd5b6101fc600480803590602001909190505061062b565b005b341561020957600080fd5b610211610635565b6040518080602001828103825283818151815260200191508051906020019080838360005b83811015610251578082015181840152602081019050610236565b50505050905090810190601f16801561027e5780820380516001836020036101000a031916815260200191505b509250505060405180910390f35b341561029757600080fd5b6102e7600480803590602001908201803590602001908080601f016020809104026020016040519081016040528093929190818152602001838380828437820191505050505050919050506106dd565b005b34156102f457600080fd5b6102fc6106f7565b6040518082815260200191505060405180910390f35b341561031d57600080fd5b6103336004808035906020019091905050610701565b005b341561034057600080fd5b61034861070b565b604051808273ffffffffffffffffffffffffffffffffffffffff1673ffffffffffffffffffffffffffffffffffffffff16815260200191505060405180910390f35b341561039557600080fd5b61039d610734565b6040518082815260200191505060405180910390f35b34156103be57600080fd5b6103d4600480803590602001909190505061073e565b005b34156103e157600080fd5b6103f76004808035906020019091905050610748565b005b341561040457600080fd5b610430600480803573ffffffffffffffffffffffffffffffffffffffff16906020019091905050610752565b005b341561043d57600080fd5b61048d600480803590602001908201803590602001908080601f01602080910402602001604051908101604052809392919081815260200183838082843782019150505050505091905050610795565b005b341561049a57600080fd5b6104a26107af565b6040518082815260200191505060405180910390f35b34156104c357600080fd5b6104cb6107b9565b6040518082815260200191505060405180910390f35b34156104ec57600080fd5b6104f46107c3565b604051808273ffffffffffffffffffffffffffffffffffffffff1673ffffffffffffffffffffffffffffffffffffffff16815260200191505060405180910390f35b341561054157600080fd5b61056d600480803573ffffffffffffffffffffffffffffffffffffffff169060200190919050506107ed565b005b8060058190555050565b610581610831565b60028054600181600116156101000203166002900480601f0160208091040260200160405190810160405280929190818152602001828054600181600116156101000203166002900480156106175780601f106105ec57610100808354040283529160200191610617565b820191906000526020600020905b8154815290600101906020018083116105fa57829003601f168201915b5050505050905090565b6000600454905090565b8060088190555050565b61063d610831565b60038054600181600116156101000203166002900480601f0160208091040260200160405190810160405280929190818152602001828054600181600116156101000203166002900480156106d35780601f106106a8576101008083540402835291602001916106d3565b820191906000526020600020905b8154815290600101906020018083116106b657829003601f168201915b5050505050905090565b80600390805190602001906106f3929190610845565b5050565b6000600754905090565b8060068190555050565b60008060009054906101000a900473ffffffffffffffffffffffffffffffffffffffff16905090565b6000600554905090565b8060078190555050565b8060048190555050565b806000806101000a81548173ffffffffffffffffffffffffffffffffffffffff021916908373ffffffffffffffffffffffffffffffffffffffff16021790555050565b80600290805190602001906107ab929190610845565b5050565b6000600654905090565b6000600854905090565b6000600160009054906101000a900473ffffffffffffffffffffffffffffffffffffffff16905090565b80600160006101000a81548173ffffffffffffffffffffffffffffffffffffffff021916908373ffffffffffffffffffffffffffffffffffffffff16021790555050565b602060405190810160405280600081525090565b828054600181600116156101000203166002900490600052602060002090601f016020900481019282601f1061088657805160ff19168380011785556108b4565b828001600101855582156108b4579182015b828111156108b3578251825591602001919060010190610898565b5b5090506108c191906108c5565b5090565b6108e791905b808211156108e35760008160009055506001016108cb565b5090565b905600a165627a7a72305820ef185ff7fd1248dc2a36698a0f6ad0ac3c90622c4dc6e0465a51ad4b86b2058a0029",
  "source": "pragma solidity ^0.4.17;\n\ncontract Order {\n  address private buyer;\n  address private seller;\n  string private name;\n  string private serialNumber;\n  uint256 private timestamp;\n  uint private warrantyMilliseconds1;\n  uint private warrantyMilliseconds2;\n  uint private status;\n  uint private amount;\n\n  function Order(address _buyer, address _seller, string _name, string _serialNumber, uint256 _timestamp, uint _warrantyMilliseconds1, uint _warrantyMilliseconds2, uint _status, uint _amount) public {\n    buyer = _buyer;\n    seller = _seller;\n    name = _name;\n    serialNumber = _serialNumber;\n    timestamp = _timestamp;\n    warrantyMilliseconds1 = _warrantyMilliseconds1;\n    warrantyMilliseconds2 = _warrantyMilliseconds2;\n    status = _status;\n    amount = _amount;\n  }\n\n  function getBuyer() public view returns (address) {\n    return buyer;\n  }\n\n  function setBuyer(address _buyer) public {\n    buyer = _buyer;\n  }\n\n  function getSeller() public view returns (address) {\n    return seller;\n  }\n\n  function setSeller(address _seller) public {\n    seller = _seller;\n  }\n\n  function getName() public view returns (string) {\n    return name;\n  }\n\n  function setName(string _name) public {\n    name = _name;\n  }\n\n  function getSerialNumber() public view returns (string) {\n    return serialNumber;\n  }\n\n  function setSerialNumber(string _serialNumber) public {\n    serialNumber = _serialNumber;\n  }\n\n  function getTimestamp() public view returns (uint256) {\n    return timestamp;\n  }\n\n  function setTimestamp(uint256 _timestamp) public {\n    timestamp = _timestamp;\n  }\n\n  function getWarrantyMilliseconds1() public view returns (uint) {\n    return warrantyMilliseconds1;\n  }\n\n  function setWarrantyMilliseconds1(uint _warrantyMilliseconds1) public {\n    warrantyMilliseconds1 = _warrantyMilliseconds1;\n  }\n\n  function getWarrantyMilliseconds2() public view returns (uint) {\n    return warrantyMilliseconds2;\n  }\n\n  function setWarrantyMilliseconds2(uint _warrantyMilliseconds2) public {\n    warrantyMilliseconds2 = _warrantyMilliseconds2;\n  }\n\n  function getStatus() public view returns (uint) {\n    return status;\n  }\n\n  function setStatus(uint _status) public {\n    status = _status;\n  }\n\n  function getAmount() public view returns (uint) {\n    return amount;\n  }\n\n  function setAmount(uint _amount) public {\n    amount = _amount;\n  }\n}\n",
  "sourcePath": "/Users/xdgimf/Hack/clbfest2018/core/contracts/Order.sol",
  "compiler": {
    "name": "solc",
    "version": "0.4.19+commit.c4cbbb05.Emscripten.clang"
  },
  "schemaVersion": "2.0.0",
  "updatedAt": "2018-03-17T23:30:03.205Z"
}