{
  "contractName": "Order",
  "abi": [
    {
      "inputs": [
        {
          "name": "_buyer",
          "type": "address"
        },
        {
          "name": "_seller",
          "type": "address"
        },
        {
          "name": "_name",
          "type": "string"
        },
        {
          "name": "_serialNumber",
          "type": "string"
        },
        {
          "name": "_timestamp",
          "type": "uint256"
        },
        {
          "name": "_warrantyMilliseconds1",
          "type": "uint256"
        },
        {
          "name": "_warrantyMilliseconds2",
          "type": "uint256"
        },
        {
          "name": "_status",
          "type": "uint256"
        },
        {
          "name": "_amount",
          "type": "uint256"
        }
      ],
      "payable": false,
      "stateMutability": "nonpayable",
      "type": "constructor"
    },
    {
      "constant": true,
      "inputs": [],
      "name": "getBuyer",
      "outputs": [
        {
          "name": "",
          "type": "address"
        }
      ],
      "payable": false,
      "stateMutability": "view",
      "type": "function"
    },
    {
      "constant": false,
      "inputs": [
        {
          "name": "_buyer",
          "type": "address"
        }
      ],
      "name": "setBuyer",
      "outputs": [],
      "payable": false,
      "stateMutability": "nonpayable",
      "type": "function"
    },
    {
      "constant": true,
      "inputs": [],
      "name": "getName",
      "outputs": [
        {
          "name": "",
          "type": "string"
        }
      ],
      "payable": false,
      "stateMutability": "view",
      "type": "function"
    },
    {
      "constant": false,
      "inputs": [
        {
          "name": "_name",
          "type": "string"
        }
      ],
      "name": "setName",
      "outputs": [],
      "payable": false,
      "stateMutability": "nonpayable",
      "type": "function"
    }
  ],
  "bytecode": "0x6060604052341561000f57600080fd5b6040516105fd3803806105fd83398101604052808051906020019091908051906020019091908051820191906020018051820191906020018051906020019091908051906020019091908051906020019091908051906020019091908051906020019091905050886000806101000a81548173ffffffffffffffffffffffffffffffffffffffff021916908373ffffffffffffffffffffffffffffffffffffffff16021790555087600160006101000a81548173ffffffffffffffffffffffffffffffffffffffff021916908373ffffffffffffffffffffffffffffffffffffffff160217905550866002908051906020019061010d929190610156565b508560039080519060200190610124929190610156565b5084600481905550836005819055508260068190555081600781905550806008819055505050505050505050506101fb565b828054600181600116156101000203166002900490600052602060002090601f016020900481019282601f1061019757805160ff19168380011785556101c5565b828001600101855582156101c5579182015b828111156101c45782518255916020019190600101906101a9565b5b5090506101d291906101d6565b5090565b6101f891905b808211156101f45760008160009055506001016101dc565b5090565b90565b6103f38061020a6000396000f300606060405260043610610062576000357c0100000000000000000000000000000000000000000000000000000000900463ffffffff16806317d7de7c14610067578063603daf9a146100f5578063a3f09ad61461014a578063c47f002714610183575b600080fd5b341561007257600080fd5b61007a6101e0565b6040518080602001828103825283818151815260200191508051906020019080838360005b838110156100ba57808201518184015260208101905061009f565b50505050905090810190601f1680156100e75780820380516001836020036101000a031916815260200191505b509250505060405180910390f35b341561010057600080fd5b610108610288565b604051808273ffffffffffffffffffffffffffffffffffffffff1673ffffffffffffffffffffffffffffffffffffffff16815260200191505060405180910390f35b341561015557600080fd5b610181600480803573ffffffffffffffffffffffffffffffffffffffff169060200190919050506102b1565b005b341561018e57600080fd5b6101de600480803590602001908201803590602001908080601f016020809104026020016040519081016040528093929190818152602001838380828437820191505050505050919050506102f4565b005b6101e861030e565b60028054600181600116156101000203166002900480601f01602080910402602001604051908101604052809291908181526020018280546001816001161561010002031660029004801561027e5780601f106102535761010080835404028352916020019161027e565b820191906000526020600020905b81548152906001019060200180831161026157829003601f168201915b5050505050905090565b60008060009054906101000a900473ffffffffffffffffffffffffffffffffffffffff16905090565b806000806101000a81548173ffffffffffffffffffffffffffffffffffffffff021916908373ffffffffffffffffffffffffffffffffffffffff16021790555050565b806002908051906020019061030a929190610322565b5050565b602060405190810160405280600081525090565b828054600181600116156101000203166002900490600052602060002090601f016020900481019282601f1061036357805160ff1916838001178555610391565b82800160010185558215610391579182015b82811115610390578251825591602001919060010190610375565b5b50905061039e91906103a2565b5090565b6103c491905b808211156103c05760008160009055506001016103a8565b5090565b905600a165627a7a7230582099a26619c72b552ab5030c517717f8e2f7a8b3ac1e541c6d9213f510636739180029",
  "source": "pragma solidity ^0.4.17;\ncontract Order {\n\n    address private buyer;\n    address private seller;\n    string private name;\n    string private serialNumber;\n    uint256 private timestamp;\n    uint private warrantyMilliseconds1;\n    uint private warrantyMilliseconds2;\n    uint private status;\n    uint private amount;\n\n    function Order(address _buyer, address _seller, string _name, string _serialNumber, uint256 _timestamp,\n            uint _warrantyMilliseconds1, uint _warrantyMilliseconds2, uint _status, uint _amount) public {\n        buyer = _buyer;\n        seller = _seller;\n        name = _name;\n        serialNumber = _serialNumber;\n        timestamp = _timestamp;\n        warrantyMilliseconds1 = _warrantyMilliseconds1;\n        warrantyMilliseconds2 = _warrantyMilliseconds2;\n        status = _status;\n        amount = _amount;\n    }\n    \n    function getBuyer() public view returns (address) {\n        return buyer;\n    }\n\n    function setBuyer(address _buyer) public {\n        buyer = _buyer;\n    }\n\n    function getName() public view returns (string) {\n        return name;\n    }\n\n    function setName(string _name) public {\n        name = _name;\n    }\n}\n",
  "sourcePath": "/Users/arke/Documents/node/blockchain/contracts/Orders.sol",
  "compiler": {
    "name": "solc",
    "version": "0.4.19+commit.c4cbbb05.Emscripten.clang"
  },
  "schemaVersion": "2.0.0",
  "updatedAt": "2018-03-17T15:29:20.435Z"
}